:020000040C00EE
:1000000000C8FF1F010200089902000899020008B9
:1000100099020008990200089902000800000000F7
:10002000000000000000000000000000990200082D
:10003000990200080000000099020008A13300089E
:100040009902000899020008990200089902000824
:100050009902000899020008990200089902000814
:1000600099020008000000000000000000000000ED
:100070009902000800000000990200089902000897
:10008000D18300089902000899020008990200082B
:1000900099020008990200089902000899020008D4
:1000A00099020008990200089902000899020008C4
:1000B00099020008990200089902000899020008B4
:1000C00099020008990200089902000899020008A4
:1000D0009902000899020008990200089902000894
:1000E0009902000899020008990200089902000884
:1000F0009902000899020008990200089902000874
:100100009902000899020008990200089902000863
:10011000118300089902000899020008990200085A
:100120009902000899020008990200089902000843
:10013000990200089902000899020008797B0008DA
:10014000817C0008990200089902000899020008C1
:100150009902000899020008990200089902000813
:100160009902000899020008990200089902000803
:1001700099020008990200089902000899020008F3
:1001800099020008990200089902000899020008E3
:1001900099020008990200089902000835530008E6
:1001A0009902000845530008292F0008192F00085C
:1001B00099020008990200089902000899020008B3
:1001C000000000000000000000000000000000002F
:1001D000000000000000000099020008000000007C
:1001E0009902000899020008000000009902000826
:1001F000990200080000000000000000000000005C
:10020000DFF874D01D4880471D4C1E4DAC4209DA02
:1002100021686268A368043BA2BFC858D050FAE7BF
:100220000C34F3E7184B194CA34208DA19685A68E2
:100230000020043AA4BF8850FBE70833F4E71448D1
:100240008047144880470000B8BE030C48CCFF1F0D
:10025000F40A000070BA030C00C8FF1F4804000035
:100260003CD7FF1F1C05000000000020000000001C
:10027000000000200000000000C8FF1F9D020008D1
:1002800048020008600200086002000878020008C6
:100290009D9A000879850008FEE7000098B500AF38
:1002A000084A4FF0005314460FCB84E80F00064B6A
:1002B000064A07CA83E8070005F05EF905F0C6F9AB
:1002C00098BD00BFC4FF0020D4FF002084000020A0
:1002D00080B584B000AF2F4BDB6803F48033002B74
:1002E0003ED02D4BDB6803F00103002B02D02B4BDB
:1002F000FB6002E005F0A0F9F860274B1B6803F0F3
:100300000403002B20D0244B9B6803F070631B0E6A
:100310000133BB60204B9B6803F4FE431B0A01338F
:100320007B601D4B9B6803F4FE031B0C01333B6099
:10033000BB683A6802FB03F3FA68B2FBF3F37A682E
:1003400002FB03F3FB600DE0134B9B6803F07F039C
:1003500001333B60FA683B68B2FBF3F3FB6001E0FA
:100360000E4BFB600B4BDB68DBB20133FA68B2FB70
:10037000F3F3FB60074B1B6903F001030133FA68D9
:10038000B2FBF3F3FB60064AFB6813601037BD460F
:1003900080BD00BF004600501047005000366E017F
:1003A000C0FF002080B485B000AFF8600B467A60D3
:1003B000FB72FB7A9B08DBB21846FB7A9B08DBB228
:1003C0001A46FB68043253F82220FB7A03F0030339
:1003D000DB001946F8238B40DB4302EA0301FB688C
:1003E000021D43F82210FB685A6FFB7A5B00194626
:1003F00003238B40DB431A40FB685A67FB683A4A89
:10040000934203D0FB68394A93420AD1FB681A6EC3
:10041000FB7A012101FA03F3DB431A40FB681A66F9
:1004200042E07B681B78DBB25BB2002B3CDA7B6876
:100430005A68FB7A9A40FB685A60FB7ADB08DBB2A9
:100440001846FB7ADB08DBB21A46FB68103253F819
:100450002220FB7A03F007039B00194607238B40F9
:10046000DB4302EA0301FB6800F1100243F82210AB
:10047000FB7ADB08DBB21846FB7ADB08DBB21A46F4
:10048000FB68103253F822207B681B7A1946FB7AEE
:1004900003F007039B0001FA03F342EA0301FB6840
:1004A00000F1100243F82210FB7A9B08DBB21846D9
:1004B000FB7A9B08DBB21A46FB68043253F8222011
:1004C0007B681B781946FB7A03F00303DB0001FA13
:1004D00003F342EA0301FB68021D43F822101437BC
:1004E000BD465DF8047B7047008E0248008F0248CD
:1004F00080B400AF034B1B681846BD465DF8047B13
:10050000704700BFC0FF002080B400AF034BD3F89A
:10051000C4301846BD465DF8047B7047004000506B
:1005200080B584B000AF7860FFF7D2FE0B4B1B683C
:100530000B4AA2FB03239A0C7B6802FB03F37B604C
:100540000023FB6003E000BFFB680133FB60FA6837
:100550007B689A42F7D31037BD4680BDC0FF0020AC
:1005600083DE1B43B0B584B002AF7860002000F09A
:100570009BF800F035FA7B68DB79002B0AD000F09D
:1005800063FA00BF00F058FA034683F00103DBB2C0
:10059000002BF7D17B685B7A184600F0FFF800BFAC
:1005A000FFF7B2FF0346002BFAD17B681B7A18468F
:1005B00000F0F0F97B681B7C184600F00DF97B68B1
:1005C0005B7C184600F030F97B689B7C184600F095
:1005D00017F97B68DB7C184600F03AF97B689B7959
:1005E000002B0AD000F064FA00BF00F089FA03463D
:1005F00083F00103DBB2002BF7D17B68DB78002BA3
:1006000002D100F0A1FA14E000F08EFA7B6899881C
:100610007B68DA787B685B781D467B681B781C46B4
:100620007B689B780093084611462A46234600F0D3
:100630009BFA7B68DB68B3F5803F03D14FF48030D1
:1006400000F032F8FFF744FE0837BD46B0BD00BFEA
:1006500080B485B000AF78607B681B0FFB607B685F
:1006600023F07043BB60FA6813465B0013449B00A1
:100670001A46044B1344BA681A601437BD465DF835
:10068000047B70471444005080B500AFFFF730FF83
:100690000246044B5B6903F0010322FA03F3184698
:1006A00080BD00BF0046005080B483B000AF7860CA
:1006B0000649064BDB6823F480327B681343CB602A
:1006C0000C37BD465DF8047B704700BF0046005004
:1006D00080B483B000AF78600649064B9B6923F471
:1006E00080327B6813438B610C37BD465DF8047B19
:1006F000704700BF0046005080B483B000AF786000
:100700000649064B5B6A23F440327B6813434B6215
:100710000C37BD465DF8047B704700BF00460050B3
:1007200080B483B000AF0346FB80FB88002B08D168
:100730000A4A0A4BDB6823F4807323F00103D36079
:1007400007E0064A054BDB6843F4807343F001037E
:10075000D3600C37BD465DF8047B704710470050EE
:1007600080B483B000AF0346FB7100BF094BD3F8E0
:10077000C43003F00803002BF8D10749064BDB68AF
:1007800023F04002FB791343CB600C37BD465DF884
:10079000047B7047004000500043005080B483B099
:1007A00000AF0346FB7100BF094BD3F8C43003F020
:1007B0000803002BF8D10749064BDB6823F08002C1
:1007C000FB791343CB600C37BD465DF8047B704763
:1007D000004000500043005080B483B000AF786008
:1007E0000649064BDB6823F0FF027B68013B13439D
:1007F000CB600C37BD465DF8047B70470046005067
:1008000080B483B000AF78600649064B1B6A23F0C2
:1008100001027B68013B13430B620C37BD465DF858
:10082000047B70470046005080B483B000AF78600E
:100830000649064B1B6923F001027B68013B134309
:100840000B610C37BD465DF8047B704700460050D5
:1008500080B483B000AF78600649064B5B6923F033
:1008600001027B68013B13434B610C37BD465DF8C9
:10087000047B70470046005080B483B000AF7860BE
:100880000649064B9B6923F007027B68013B134333
:100890008B610C37BD465DF8047B70470046005005
:1008A00080B483B000AF78600649064B5B6A23F0E2
:1008B000FF027B68013B13434B620C37BD465DF87A
:1008C000047B70470046005080B483B000AF0346FD
:1008D000FB71044AFB7953600C37BD465DF8047B1D
:1008E000704700BF0046005080B485B000AF78600C
:1008F0007B681B0FFB607B6823F07043BB60FA686A
:1009000013465B0013449B001A46044B1344BA6819
:100910001A601437BD465DF8047B704748460050A6
:1009200080B483B000AF78603960194A184B5B69B6
:1009300043F001035361164A154B5B6943F0100302
:10094000536113493B68013B1A027B68013B1B065C
:1009500013434B610E4A0E4B5B6943F040035361F6
:100960000B4A0B4B5B6923F010035361084A084B99
:100970005B6943F48023536100BF054B1B6903F09F
:100980000403002BF9D00C37BD465DF8047B70479B
:100990001047005080B582B000AF0346FB710F4A8C
:1009A0000E4B5B6843F480135360FB79012B0ED12F
:1009B0000A4A0A4B5B6823F4801353606420FFF7F4
:1009C000AFFD064A054B5B6843F400235360642087
:1009D000FFF7A6FD0837BD4680BD00BF1047005099
:1009E00080B400AF124B1B6803F00103002B09D148
:1009F0000F4B01225A6000BF0D4B1B6803F001032F
:100A0000002BF9D00B4B1B6803F40073002B0AD0AA
:100A1000084B4FF400729A6000BF064B1B6803F44A
:100A20000073002BF9D1BD465DF8047B704700BF11
:100A3000004200500044005080B400AF012318462B
:100A4000BD465DF8047B704780B500AF00BF164B14
:100A5000D3F8C43003F08003002BF8D1134A134BB2
:100A6000DB6923F03003D36100BF0F4BD3F8C430F0
:100A700003F00803002BF8D10C4A0C4BDB6843F061
:100A80000803D36000BF084BD3F8C43003F004035D
:100A9000002BF8D1054B08229A6000BFFFF734FD08
:100AA0000346002BFAD180BD0040005000430050A7
:100AB000B0B500AF0F4A0F4B5B6823F4803353602F
:100AC0000D4D0D4B5B6823F4702424F0300404F0CA
:100AD000B3FD0246094BA3FB02231B0D013B1B0484
:100AE00023436B60034A034B5B6823F4003353607A
:100AF000B0BD00BF10470050004700506BCA5F6B8D
:100B000080B400AF074B1B6803F46073B3F5607FDC
:100B10000CBF01230023DBB21846BD465DF8047B01
:100B2000704700BF1047005080B400AF054A054B26
:100B30005B6823F4803323F002035360BD465DF805
:100B4000047B70471047005080B400AF054A054B46
:100B50005B6843F4803343F002035360BD465DF8A5
:100B6000047B70471047005080B586B000AFBA6074
:100B70007B600346FB810B467B73FB891846FFF7BE
:100B8000CFFD7B7B012B40F08480FB89002B09D1BA
:100B900004F052FD02464B4BA3FB02239B0C9B052A
:100BA0007B6102E04FF0C0637B617B697A6802FB86
:100BB00003F2BB68B2FBF3F37B617B69424AA2FBA1
:100BC00003231B099B0D3B61404A404B5B6843F08C
:100BD000010353603D4A3D4B5B6843F01003536093
:100BE0003A493A4B9A683A4B13407A68013A1202F2
:100BF0001A433B69013B1B041A43BB68013B1B06BC
:100C000013438B60314A314B5B6843F040035360C0
:100C10002E4A2E4B5B6823F0100353602B4A2B4B5C
:100C20005B6843F48023536000BF284B1B6803F0CC
:100C30000403002BF9D0254A244B5B6823F0010301
:100C4000536000BF214B1B6803F00103002BF9D157
:100C50007B69204AA2FB03235B099B0D3B613A6A37
:100C60003B699A4202D2386900F038F87B695B0828
:100C7000194AA2FB03235B099B0D3B613A6A3B695E
:100C80009A4202D2386900F029F8386A00F026F852
:100C900015E00E490D4B9B6823F07F023B6A013B38
:100CA00013438B60094A094B5B6843F001035360AF
:100CB00000BF064B1B6803F00103002BF9D0183767
:100CC000BD4680BD83DE1B43ABAAAAAA10470050D5
:100CD000FF8080F089888888B7600BB680B582B0C5
:100CE00000AF78600749074B9B6823F4FE027B68DE
:100CF000013B1B0413438B603220FFF711FC0837C4
:100D0000BD4680BD1047005080B483B000AF78600E
:100D10007B68DB6843F480727B68DA600C37BD4621
:100D20005DF8047B704700BF80B582B000AF78608B
:100D30007B68104A934203D10420FFF789FC16E038
:100D40007B680D4A934203D10820FFF781FC0EE037
:100D50007B680A4A934203D11020FFF779FC06E032
:100D60007B68074A934202D10648FFF771FC0837B7
:100D7000BD4680BD00C00040000001400040014071
:100D8000004000480100001080B582B000AF7860DC
:100D90007B68104A934203D10420FFF7A5FD16E0BB
:100DA0007B680D4A934203D10820FFF79DFD0EE0BA
:100DB0007B680A4A934203D11020FFF795FD06E0B5
:100DC0007B68074A934202D10648FFF78DFD08373A
:100DD000BD4680BD00C00040000001400040014011
:100DE000004000480100001080B582B000AF78607C
:100DF0001020FFF769FD7868FFF7C6FF7868FFF7F6
:100E000093FF0837BD4680BD80B584B000AF7860E1
:100E10000B46FB707868FFF7E7FF7868FFF774FF11
:100E20007B681B68FB60FB6823F44043FB60FB7836
:100E30009B03FA681343FB607B68FA681A601037FB
:100E4000BD4680BD80B485B000AF786039607B68F6
:100E50001B68FB603B681B0CDB43FA681340FB60BC
:100E60003B689BB2FA681343FB607B68FA681A60C0
:100E70001437BD465DF8047B704700BF80B483B073
:100E800000AF786039603B681A687B685A613B68DC
:100E90005B79C3F34013DBB21A057B685A603B6889
:100EA0001B79C3F30303DBB21A467B685A623B68C3
:100EB0005B79C3F30303DBB21A467B681A623B68B3
:100EC0005B79C3F30013DBB21A467B689A613B6817
:100ED0001B79C3F30313DBB21A467B68DA620C3763
:100EE000BD465DF8047B704780B485B000AF786084
:100EF0000B46FB701346BB707B685B68BB60BB68CE
:100F000023F00303BB60FB78BA681343BB607B68C4
:100F1000BA685A607B685B69FB60BB78012B04D1BF
:100F2000FB6843F48063FB6003E0FB6823F48063A9
:100F3000FB607B68FA685A611437BD465DF8047B34
:100F4000704700BF80B485B000AF78600B46FB707F
:100F50001346BB707B685B68FB60FB6823F00C0387
:100F6000FB60FB789B00FA681343FB607B68FA68C0
:100F70005A607B685B69BB60BB6823F44073BB60ED
:100F8000BB781B02BA681343BB607B68BA685A61BE
:100F90001437BD465DF8047B704700BF80B485B050
:100FA00000AF78600B46FB707B685B68FB60FB689A
:100FB00023F44053FB60FB781B03FA681343FB6088
:100FC0007B68FA685A601437BD465DF8047B704749
:100FD00080B485B000AF7860084611461A460346D3
:100FE000FB700B46BB7013467B707B685B69FB60D4
:100FF0007B685B68BB60BB6823F44023BB60FB7805
:101000009B04BA681343BB607B68BA685A60BB78BC
:10101000012B04D1FB6843F08073FB6003E0FB68A5
:1010200023F08073FB607B78002B04D0FB6843F4D3
:101030000003FB6003E0FB6823F40003FB607B68B4
:10104000FA685A611437BD465DF8047B704700BFEB
:1010500080B485B000AF78600B46FB707B685B683E
:10106000FB60FB6823F44043FB60FB789B03FA685A
:101070001343FB607B68FA685A601437BD465DF81D
:10108000047B704780B485B000AF78600B46FB707E
:101090007B685B68FB60FB6823F44073FB60FB7854
:1010A0001B02FA681343FB607B68FA685A601437C6
:1010B000BD465DF8047B704780B485B000AF7860B2
:1010C0000B46FB707B685B68FB60FB6823F4406346
:1010D000FB60FB789B02FA681343FB607B68FA684D
:1010E0005A601437BD465DF8047B704780B485B004
:1010F00000AF78607B685B68FB60FB6823F480333B
:10110000FB60FB6843F48033FB607B68FA685A60DD
:101110001437BD465DF8047B704700BF80B485B0CE
:1011200000AF78600B46FB701346BB707B685B6852
:10113000BB60BB6823F40033BB60BB6843F400337F
:10114000BB607B68BA685A607B685B69FB60BB7890
:10115000002B04D0FB6843F40013FB6003E0FB6842
:1011600023F40013FB60FB78012B04D1FB6843F4EC
:101170008003FB6003E0FB6823F48003FB607B6873
:10118000FA685A611437BD465DF8047B704700BFAA
:1011900080B487B000AFF860B9607A60FB681B6804
:1011A0007B617B6923F440237B61BB685B789B0494
:1011B0007A6913437B617B6923F440137B617B680D
:1011C0005B781B057A6913437B617B6923F4000319
:1011D0007B61BB689B78DB057A6913437B617B6924
:1011E00023F080737B617B689B781B067A691343CD
:1011F0007B617B6923F0C0537B61BB68DB78DB06D6
:101200007A6913437B617B6923F0C0437B617B6810
:10121000DB785B077A6913437B617B6923F0F0031A
:101220007B61BB681B781B017A6913437B617B6917
:1012300023F470637B617B681B781B027A6913431C
:101240007B61FB687A691A601C37BD465DF8047BD8
:10125000704700BF80B489B000AFF8600B467A6079
:10126000FB72FB7A013BFB77FB681B68BB61FB7F72
:101270005B00DBB21033FB75FB7D032202FA03F344
:10128000DB43BA691340BB617B685B781A46FB7D20
:1012900002FA03F3BA691343BB61FB7F1633FB7594
:1012A000FB7D012202FA03F3DB43BA691340BB6101
:1012B0007B689B781A46FB7D02FA03F3BA691343F5
:1012C000BB61FB7F5B00DBB21933FB75FB7D032247
:1012D00002FA03F3DB43BA691340BB617B68DB7836
:1012E0001A46FB7D02FA03F3BA691343BB61FB7F25
:1012F0009B00FB75FB7D0F2202FA03F3DB43BA6907
:101300001340BB617B681B781A46FB7D02FA03F32E
:10131000BA691343BB61FB68BA691A602437BD46DA
:101320005DF8047B704700BF80B487B000AF786081
:101330000B46FB701346BB707B68D3F8A830FB608C
:10134000FB78092B2CD801A252F823F07513000862
:10135000751300087F1300087F130008A11300080D
:10136000A1130008A1130008A113000889130008A5
:101370009513000803233B6100237B6116E00C23D7
:101380003B6102237B6111E04FF440733B61082312
:101390007B610BE04FF440633B610A237B6105E016
:1013A0004FF440533B610C237B6100BF3B69DB433F
:1013B000FA681340FB60BA787B6902FA03F3FA68B3
:1013C0001343FB607B68FA68C3F8A8201C37BD464E
:1013D0005DF8047B704700BF80B483B000AF7860D5
:1013E0007B68DB6843F480727B68DA600C37BD464B
:1013F0005DF8047B704700BF80B483B000AF7860B5
:101400007B6801221A610C37BD465DF8047B70478A
:1014100080B582B000AF78607B68094A934203D1FF
:101420008020FFF715F907E07B68064A934203D155
:101430004FF48070FFF70CF90837BD4680BD00BF40
:10144000000002400040024080B582B000AF7860EA
:101450007B68094A934203D18020FFF745FA07E0F1
:101460007B68064A934203D14FF48070FFF73CFA41
:101470000837BD4680BD00BF00000240004002406A
:1014800080B582B000AF78601020FFF71DFA786851
:10149000FFF7DAFF7868FFF7BBFF0837BD4680BD6E
:1014A00080B584B000AF78600B46FB707868FFF7BA
:1014B000E7FF7868FFF790FF7B681B68FB60FB68BD
:1014C00023F44043FB60FB789B03FA681343FB6003
:1014D0007B68FA681A601037BD4680BD80B582B05F
:1014E00000AF786039607868FFF786FF3B681A685C
:1014F0007B685A613B685B7BC3F30013DBB21A0560
:101500007B685A603B681B7BC3F30303DBB21A465C
:101510007B685A623B681B7BC3F30313DBB21A463A
:101520007B68DA623B685B7BC3F30303DBB21A467A
:101530007B681A623B685A687B689A613B689B6863
:1015400083F014027B689A640837BD4680BD00BFF3
:1015500080B485B000AF786039607B689B6CFB60BD
:101560003B681B0CDB43FA681340FB603B689BB293
:10157000FA681343FB607B68FA689A641437BD46C7
:101580005DF8047B704700BF80B485B000AF786021
:1015900039607B681B68FB603B681B0CDB43FA68A7
:1015A0001340FB603B689BB2FA681343FB607B68A7
:1015B000FA681A601437BD465DF8047B704700BFB7
:1015C00080B485B000AF78600B46FB701346BB70EB
:1015D0007B685B68BB60BB6823F00303BB60FB7880
:1015E000BA681343BB607B68BA685A607B685B6902
:1015F000FB60BB78012B04D1FB6843F48063FB6084
:1016000003E0FB6823F48063FB607B68FA685A613F
:101610001437BD465DF8047B704700BF80B485B0C9
:1016200000AF78600B46FB707B685B68FB60FB6813
:1016300023F44063FB60FB789B02FA681343FB6072
:101640007B68FA685A601437BD465DF8047B7047C2
:1016500080B485B000AF78600B46FB701346BB705A
:101660007B685B68BB60BB6823F40033BB60BB680E
:1016700043F40033BB607B68BA685A607B685B697F
:10168000FB60BB78002B04D0FB6843F40013FB60C5
:1016900003E0FB6823F40013FB60FB78012B04D10B
:1016A000FB6843F48003FB6003E0FB6823F48003E2
:1016B000FB607B68FA685A611437BD465DF8047BAD
:1016C000704700BF80B489B000AFF8600B467A6005
:1016D000FB72FB7A013BFB77FB681B68BB61FB7FFE
:1016E0005B00DBB21033FB75FB7D032202FA03F3D0
:1016F000DB43BA691340BB617B685B781A46FB7DAC
:1017000002FA03F3BA691343BB61FB7F1633FB751F
:10171000FB7D012202FA03F3DB43BA691340BB618C
:101720007B689B781A46FB7D02FA03F3BA69134380
:10173000BB61FB7F5B00DBB21933FB75FB7D0322D2
:1017400002FA03F3DB43BA691340BB617B68DB78C1
:101750001A46FB7D02FA03F3BA691343BB61FB7FB0
:101760009B00FB75FB7D0F2202FA03F3DB43BA6992
:101770001340BB617B681B781A46FB7D02FA03F3BA
:10178000BA691343BB61FB68BA691A602437BD4666
:101790005DF8047B704700BF80B483B000AF786011
:1017A0000B467B807A887B685A630C37BD465DF8B0
:1017B000047B704780B483B000AF78600B46FB7049
:1017C00013463B80FB78002B03D13A887B68DA63B1
:1017D00002E03A887B685A640C37BD465DF8047BAA
:1017E000704700BF80B483B000AF786039603B6859
:1017F0005A687B681A653B689A687B685A653B68DB
:101800001A687B68DA640C37BD465DF8047B704764
:1018100080B483B000AF78600B46FB707B685B6977
:1018200023F0C0427B685A617B685A69FB785B078A
:101830001A437B685A610C37BD465DF8047B7047DC
:1018400080B483B000AF78600B46FB701346BB706A
:10185000FB789B08DBB21846FB789B08DBB21A4684
:101860007B68043253F82220FB7803F00303DB008B
:101870001946F8238B40DB4302EA03017B68021D13
:1018800043F82210FB789B08DBB21846FB789B08D4
:10189000DBB21A467B68043253F82220BB78F97811
:1018A00001F00301C9008B4042EA03017B68021D7D
:1018B00043F822100C37BD465DF8047B704700BF2B
:1018C00080B483B000AF78600B46FB701346BB70EA
:1018D0007B685A6FFB785B00194603238B40DB4320
:1018E0001A407B685A677B685A6FBB78F978490061
:1018F0008B401A437B685A670C37BD465DF8047B02
:10190000704700BF80B483B000AF78607B689B6B8A
:10191000DBB223F07F03DBB218460C37BD465DF81F
:10192000047B704780B483B000AF786039607B6817
:10193000DA6C3B681A437B68DA640C37BD465DF8A5
:10194000047B704780B582B000AF786039607868FA
:1019500000F000FA7B680E4A5A633B689B887868FF
:10196000194600F017F83B681B687868194600F0C4
:1019700031F87B684FF4A0629A637B684FF0FF32C6
:10198000DA647B6800221A640837BD4680BD00BF58
:1019900003033F0780B483B000AF78600B467B80C1
:1019A0007B8803F4F843B3F5F04F09D17B88DAB2B2
:1019B0007B885B0003F47E431A437B68DA6303E0B1
:1019C0007B881A027B68DA630C37BD465DF8047BBE
:1019D000704700BF80B584B000AF786039600123E4
:1019E000FB733B68174A934210D87B68DB6B23F488
:1019F00000327B68DA63786839680A2200F0E4F91B
:101A00000346002B19D10023FB7316E03B680E4AF6
:101A1000934210D87B68DB6B43F400327B68DA6357
:101A200078683968192200F0CFF90346002B04D1F9
:101A30000023FB7301E00123FB73FB7B1846103787
:101A4000BD4680BDA0860100801A060080B582B028
:101A500000AF78607B68D3F8083103F0E063002BB7
:101A600011D100BF7868FFF74DFF0346802BF9D0F6
:101A700078684FF40051FFF755FF7B684FF4C06260
:101A8000C3F8802004E07B684FF4C062C3F8802173
:101A90000837BD4680BD00BF80B582B000AF78601A
:101AA0000B46FB707B68D3F8083103F0E063002B32
:101AB00010D100BF7868FFF725FF0346802BF9D0CF
:101AC00078684FF40051FFF72DFFFA787B68C3F870
:101AD000802003E0FA787B68C3F880210837BD4690
:101AE00080BD00BF80B582B000AF78607B68D3F85E
:101AF000083103F0E063002B11D100BF7868FFF7D5
:101B000001FF0346802BF9D078684FF40051FFF7AE
:101B100009FF7B684FF40072C3F8802004E07B6803
:101B20004FF40072C3F880210837BD4680BD00BF66
:101B300080B582B000AF78607B68D3F8083103F0DD
:101B4000E063002B11D100BF7868FFF7DBFE03468E
:101B5000802BF9D078684FF40051FFF7E3FE7B68E3
:101B60004FF44072C3F8802004E07B684FF4407269
:101B7000C3F880210837BD4680BD00BF80B485B062
:101B800000AF78607B68D3F80C3103F0E063002B82
:101B900003D17B685B6DFB7303E07B68D3F81C317A
:101BA000FB73FB7B18461437BD465DF8047B70471A
:101BB00080B483B000AF786039607B681A6C3B6892
:101BC00003F4FE33DB431A407B681A647B68DA6BEC
:101BD0003968054B0B40DB431A407B68DA630C37EE
:101BE000BD465DF8047B70470000FC4180B483B0C3
:101BF00000AF78607B689B6BDBB223F07F03DBB2C6
:101C000018460C37BD465DF8047B704780B483B03E
:101C100000AF786039607B683A68DA640C37BD469B
:101C20005DF8047B704700BF80B584B000AF78607A
:101C300039601023FB60786800F08CF83B68DB7932
:101C4000002B02D03B68DB79FB603B681B6878683F
:101C50001946FA6800F0B8F83B689B79013B5A00D6
:101C6000FB685B0801331B02134343F4403343F02A
:101C700001037A68D3633B681B79013B1B0643F47D
:101C800081727B685A633B685B79002B09D07B6863
:101C90005A6B3B685B79013B1B041A437B685A63B0
:101CA00008E07B685A6B3B681B79013B1B041A43B5
:101CB0007B685A637B684FF4A0629A637B684FF03D
:101CC000FF32DA643B681B891A467B681A64103756
:101CD000BD4680BD80B582B000AF78600B467B808A
:101CE0007B68D3F8083103F0E063002B10D100BF0C
:101CF0007868FFF77BFF0346802BF9D078684FF4B4
:101D00000051FFF783FF7A887B68C3F8802003E0E7
:101D10007A887B68C3F880210837BD4680BD00BF44
:101D200080B485B000AF78607B68D3F80C3103F0E5
:101D3000E063002B03D17B685B6DFB8103E07B6874
:101D4000D3F81C31FB81FB8918461437BD465DF87A
:101D5000047B704780B582B000AF78607B68144A1E
:101D6000934203D07B68134A934203D1124800F098
:101D700067F90AE07B68114A934203D07B68104AF6
:101D8000934202D10F4800F05BF97B680322DA60CE
:101D900000BF7B68DB6803F00103002BF9D07B6890
:101DA0001B6C23F00F027B681A640837BD4680BDA8
:101DB0000000034000020340080003400000024806
:101DC000000202480800024880B58EB000AFF860FB
:101DD000B9607A60BB68632B58D97B68002B55D0FB
:101DE000FEF752FC02462E4BA3FB02235B093B622B
:101DF000BB682B4AA2FB03235B09BB600123FB6288
:101E00000123BB6240F2FF337B6240F2FF333B634E
:101E100022E03B6A3A6B02FB03F2BB68796801FB84
:101E200003F3B2FBF3F3FB61FB699B0ABB61FB6944
:101E3000C3F309037B61BB69B3F5806F09D27A698B
:101E40007B6A9A4205D27B697B62BB69BB623B6B52
:101E5000FB623B6B013B3B633B6B002BD9D1FB6AC5
:101E600043F40042FB681A61FB685A690D4B13404A
:101E70007A68013A92021A43BB6A013B1B041A4377
:101E8000FB685A61002387F8373002E0012387F8A6
:101E9000373097F8373018463837BD4680BD00BF19
:101EA0001F85EB51EF8000FC80B485B000AFF86077
:101EB000B9603B601346FB71FB68D3F8083123F02F
:101EC000E062FB68C3F80821FB68D3F80821094BDE
:101ED00013403A681102BA681143FA7912060A43AC
:101EE0001A43FB68C3F808211437BD465DF8047B2C
:101EF000704700BFC0C0FFF880B485B000AFF86085
:101F0000B9603B601346FB71FB68D3F80C3123F0DA
:101F1000E062FB68C3F80C21FB68D3F80C210A4B84
:101F200013403A681102BA681143FA7912060A435B
:101F3000134343F08052FB68C3F80C211437BD46AD
:101F40005DF8047B704700BFC0C0FFEF80B485B070
:101F500000AFF8600B467A60FB72FB68D3F80C3177
:101F600023F0E062FB68C3F80C21FB68D3F80C3166
:101F700023F47C527B681B021A43FB7A1B061A432C
:101F8000FB68C3F80C211437BD465DF8047B70472D
:101F900080B485B000AFF8600B467A60FB72FB68D6
:101FA0009A69FB7A072101FA03F3DB431A40FB7AB3
:101FB000796801FA03F31A43FB689A611437BD4646
:101FC0005DF8047B704700BF80B485B000AFF86057
:101FD0000B467A60FB72FB68D3F80821FB7A072175
:101FE00001FA03F3DB431A40FB7A796801FA03F341
:101FF0001A43FB68C3F808211437BD465DF8047B1B
:10200000704700BF80B485B000AFF8600B467A60BF
:10201000FB72FB68D3F80C21FB7A072101FA03F36A
:10202000DB431A40FB7A796801FA03F31A43FB6831
:10203000C3F80C211437BD465DF8047B704700BF20
:1020400080B582B000AF78607B680C4A934208D1BB
:102050004FF40060FEF748FC4FF40060FEF7F8FA1A
:1020600009E07B68064A934205D10648FEF73CFC2E
:102070000448FEF7EDFA0837BD4680BD080003406E
:10208000080002488000001080B485B000AF78607E
:1020900039603B78C3F30203DBB21A467B88C3F393
:1020A00009039BB21B041343FB607B68FA68C3F807
:1020B000F021FB78C3F30013DBB21A07FB78C3F3FC
:1020C0008103DBB29B061A43FB78C3F34013DBB2F8
:1020D0005B071343FB60FB78C3F38013DBB29B0702
:1020E000FA681343FB607B68D3F8F021FB68134365
:1020F00043F000427B68C3F8F0211437BD465DF819
:10210000047B704780B483B000AF78607B68D3F8FD
:10211000843043F080627B68C3F884200C37BD466E
:102120005DF8047B704700BF80B483B000AF786077
:102130007B68D3F8843023F080627B68C3F8842006
:102140000C37BD465DF8047B704700BF80B500AF1B
:102150000120FEF7C9FB0120FEF77AFA80BD00BF1F
:1021600080B582B000AF78603960FFF7EFFF3B6861
:102170005A697B681A603B685B6843F400427B687D
:10218000C3F880203B689A687B68C3F8A0203B684E
:10219000DA687B68C3F8A4203B681A697B68C3F8D7
:1021A00080223B681A687B68C3F8B8200837BD46B0
:1021B00080BD00BF80B485B000AFF860B9603B60FF
:1021C0001346FB71FB79002B09D1BA6840F21F73EB
:1021D0001340FA683968283142F8213007E0BA68BC
:1021E000054B1340FA683968283142F8213014371A
:1021F000BD465DF8047B704700001F0780B485B0C2
:1022000000AF78607B68D3F8803043F000427B6891
:10221000C3F880200023FB7316E0FB7B0E4A52F8C4
:102220002330BB60BB68D3F8803003F44033002B0D
:1022300007D000BFBB68D3F8803003F08053002B79
:10224000F8D1FB7B0133FB73FB7B032BE5D9143700
:10225000BD465DF8047B7047F89A000880B485B0ED
:1022600000AF78600B46FB70FB78032B03D9FB783B
:10227000043BFB6001E0FB78FB607B68D3F84031F6
:1022800023F00F027B68C3F840217B68D3F840211C
:10229000FB681A437B68C3F840211437BD465DF8DC
:1022A000047B704780B582B000AF786039603B68CE
:1022B000786859680022002300F028F83B687868A5
:1022C00059680122002300F021F83B68786899687A
:1022D0000022012300F01AF83B687868996801220F
:1022E000012300F013F83B681A697B68C3F880206B
:1022F0003B68DA687B68C3F8B8203B68786819687F
:10230000FFF7C2FE0837BD4680BD00BF80B48DB068
:1023100000AFF860B9603B601346FB71FB79002B9E
:1023200013D10823FB624FF4E0637B620023BB629E
:102330001F233B623B7AC3F30403DBB2FB617B7A6E
:10234000C3F30203DBB2FB7613E01823FB624FF00A
:10235000E0637B621023BB624FF4F8133B62BB7AED
:10236000C3F30403DBB2FB61FB7AC3F30203DBB20A
:10237000FB76FB683A68283253F822307B617B6A2F
:10238000DB437A6913407B61FA7EFB6A02FA03F34E
:102390007A6913437B613B6ADB437A6913407B6153
:1023A000BB6AFA6902FA03F37A6913437B61FB683B
:1023B0003A682832796943F822103437BD465DF80F
:1023C000047B704780B485B000AF78600B46FB702B
:1023D0007B68D3F88030FB60FB6823F00303FB606D
:1023E000FB78FA681343FB607B68FA68C3F88020C7
:1023F0001437BD465DF8047B704700BF80B586B0DA
:1024000000AF786039600023FB7509E0FB7D394A35
:1024100052F823301846FFF787FEFB7D0133FB752A
:10242000FB7D032BF2D900233B613B681B7803F053
:102430000303DBB2002B02D04FF400633B610023A7
:10244000FB7521E0FB7D2B4A52F82330D3F8843012
:10245000FB60FB6823F44073FB603B681B78C3F3AD
:102460008103DBB21B02FA681343FB60FA683B6925
:102470001343FB60FB7D1F4A52F82330FA68C3F810
:102480008420FB7D0133FB75FB7D032BDAD93B6890
:102490005B6843F4000343F400437A68C2F80032F7
:1024A0003B689B6843F001027B68C3F804223B68E9
:1024B0001B7803F00303DBB2022B07D17B68D3F850
:1024C000043243F480327B68C3F804220023FB7596
:1024D00009E0FB7D074A52F823301846FFF712FE49
:1024E000FB7D0133FB75FB7D032BF2D91837BD460D
:1024F00080BD00BFF89A000880B489B000AFF860D2
:10250000B9607A607B681B7BBB61FB68D3F888305D
:102510007B61BB68012202FA03F3DB437A69134053
:102520007B61BB68BA6902FA03F37A6913437B6182
:10253000FB687A69C3F888207B685B7B5BB2002B01
:1025400029DB0023FB61BB68012B0AD10823FB6157
:10255000FB68D3F8B03023F4F852FB68C3F8B0201E
:102560000CE0BB68002B09D10023FB61FB68D3F8AA
:10257000B03023F01F02FB68C3F8B020FB68D3F82B
:10258000B0307A68527B51B2FA6901FA02F21A430A
:10259000FB68C3F8B020FB68D3F8C8207B685B6891
:1025A0001A43FB68C3F8C820FB68D3F8D0207B68C7
:1025B0009B681A43FB68C3F8D0207B681968FB68E6
:1025C000BA68803243F822102437BD465DF8047B98
:1025D000704700BF80B400AFBD465DF8047B704714
:1025E00080B584B000AF78607B685B689B68984773
:1025F0000023FB73FB7B18461037BD4680BD00BF30
:1026000080B483B000AF78600B46FB701346BB709C
:10261000F878FB787A6806339B0013445B6823F0F4
:102620000702BB781A437968831D9B000B445A60EC
:102630000C37BD465DF8047B704700BF80B483B0A3
:1026400000AF786039607B68DB6B23F4F8523B683D
:102650001B021A437B68DA630C37BD465DF8047BC6
:10266000704700BF80B500AF09480A49FFF7DCFAA0
:1026700007480821FFF7E2FF054800210022FFF785
:10268000BFFF034810210222FFF782FC80BD00BF7C
:1026900000000248089B000880B483B000AF786057
:1026A00039607B681A6C3B681A437B681A640C3784
:1026B000BD465DF8047B704780B483B000AF78609E
:1026C00039607B681A6C3B68DB431A407B681A648C
:1026D0000C37BD465DF8047B704700BF80B483B003
:1026E00000AF78607B689B6BDBB223F07F03DBB2CB
:1026F00018460C37BD465DF8047B704780B483B044
:1027000000AF786039603B684FF480329A407B6854
:102710009A660C37BD465DF8047B704780B483B081
:1027200000AF786039607B68D3F808213B681A43B2
:102730007B68C3F808210C37BD465DF8047B704701
:1027400080B483B000AF786039607B68D3F808212B
:102750003B68DB431A407B68C3F808210C37BD4651
:102760005DF8047B704700BF80B483B000AF786031
:102770007B684FF40042C3F818210C37BD465DF862
:10278000047B704780B483B000AF78607B68D3F877
:10279000143103F48053002B14BF01230023DBB258
:1027A00018460C37BD465DF8047B704780B483B093
:1027B00000AF78607B68D3F8143103F40063002B1A
:1027C00014BF01230023DBB218460C37BD465DF869
:1027D000047B704780B483B000AF786039607B6859
:1027E000D3F80C213B681A437B68C3F80C210C37E3
:1027F000BD465DF8047B704780B483B000AF78605D
:1028000039607B68D3F80C213B68DB431A407B6856
:10281000C3F80C210C37BD465DF8047B704700BF40
:1028200080B483B000AF78607B684FF48042C3F817
:1028300018210C37BD465DF8047B704780B483B027
:1028400000AF78607B68D3F8143103F00803002BE5
:1028500014BF01230023DBB218460C37BD465DF8D8
:10286000047B704780B584B000AF78600023FB73B1
:102870007B685B685B6898470346FB73FB7B184685
:102880001037BD4680BD00BF80B586B000AFF86090
:10289000B9607A600423FB75FB685B6893F82930A4
:1028A000002B00D007E0F868B9687A6800F024F8D7
:1028B0000346FB7500BFFB7D18461837BD4680BD3B
:1028C00080B586B000AFF860B9607A600423FB750C
:1028D000FB685B6893F82A30002B00D007E0F868AB
:1028E000B9687A6800F064F80346FB7500BFFB7DA9
:1028F00018461837BD4680BD80B586B000AFF86079
:10290000B9607A600423FB75FB689B683B61FB68D8
:102910005B6893F82930002B44D10223FB753B6997
:102920001B7EDBB283F00103DBB2002B3AD0BB6825
:10293000002B35D07B68002B32D03B69BA681A6017
:102940003B697A689A603B690022DA603B69012240
:102950001A76FB685B6893F82B30002B0CD0FB6871
:102960001B681846FFF700FFFB681B6818464FF00E
:102970008041FFF7D3FE06E0FB681B6818464FF462
:102980000051FFF789FE0023FB75FB681A68FB689E
:102990005B6893F82D3010461946FFF7AFFE01E053
:1029A0000323FB75FB7D18461837BD4680BD00BF6D
:1029B00080B586B000AFF860B9607A600423FB751B
:1029C000FB689B683B61FB685B6893F82A30002BCF
:1029D0003ED10223FB753B695B7EDBB283F00103D2
:1029E000DBB2002B34D0BB68002B2FD07B68002BD0
:1029F0002CD03B69BA685A603B697A681A613B69B6
:102A000001225A763B6900225A61FB685B6893F8A1
:102A10002C30002B10D0FB681B681846FFF700FF16
:102A2000F868796800F030F9FB681B6818464FF0C9
:102A3000C041FFF7CFFE06E0FB681B6818464FF465
:102A40004041FFF729FE0023FB7501E00323FB75DE
:102A5000FB7D18461837BD4680BD00BF80B584B0E9
:102A600000AF78607B689B68FB60FB68DA68FB6896
:102A70009B689A4240D27B685B6893F82B30002BAE
:102A800027D01AE0FB68DA68FB689B689A4212D28A
:102A90007B681968FB681A68FB68DB6813441B785D
:102AA0009BB208461946FFF715F9FB68DB685A1C0C
:102AB000FB68DA6001E000BF53E07B681B681846E2
:102AC000FFF760FE034683F00103DBB2002BD9D190
:102AD00047E07B681968FB681A68FB68DB68134489
:102AE0001B789BB208461946FFF7F4F8FB68DB68D1
:102AF0005A1CFB68DA6034E07B681B681846FFF7F5
:102B000055FE0346002B2CD07B685B6893F82B3076
:102B1000002B07D07B681B6818464FF08041FFF7F9
:102B20000FFE06E07B681B6818464FF40051FFF764
:102B3000C3FD00BF7B681B681846FFF7CFFD034647
:102B4000802BF7D0FB6800221A76FB6800221A60FF
:102B50007B685B689B68002B03D07B685B689B6825
:102B600098471037BD4680BD90B585B000AF7860FE
:102B70007B689B68FB607B685B6893F82C30002B5C
:102B80004ED032E0FB685A69FB681B699A4211D249
:102B9000FB685A68FB685B69D4187B681B68184639
:102BA000FFF7BEF80346DBB22370FB685B695A1C73
:102BB000FB685A61FB685A69FB681B699A4214D129
:102BC000FB6800225A767B681B6818464FF0C041AC
:102BD000FFF712FE7B685B68DB68002B04D07B6824
:102BE0005B68DB6898470BE00AE07B681B68184667
:102BF000FFF724FE034683F00103DBB2002BC1D1B3
:102C0000FB685A69FB681B699A423AD2FB681A69E9
:102C1000FB685B69D31A7868194600F035F830E034
:102C2000FB685A69FB681B699A4211D2FB685A68B3
:102C3000FB685B69D4187B681B681846FFF770F85F
:102C40000346DBB22370FB685B695A1CFB685A6160
:102C5000FB685A69FB681B699A4212D1FB68002223
:102C60005A767B681B6818464FF44041FFF724FDF5
:102C70007B685B68DB68002B03D07B685B68DB6884
:102C800098471437BD4690BD80B584B000AF7860DA
:102C900039600023FB607B685B6893F82C301A4630
:102CA00001239340BB603A68BB689A4203D23B68F9
:102CB000013BFB6002E0BB68013BFB607B681A687C
:102CC0007B685B6893F82C3010461946FA68FFF76A
:102CD0003DF91037BD4680BD80B400AF044BDB68C2
:102CE00003F4E0631B0A1846BD465DF8047B704799
:102CF00000ED00E080B483B000AF0346FB7197F9AC
:102D00000730002B0BDB084997F907305B09FA798C
:102D100002F01F02012000FA02F241F823200C37D2
:102D2000BD465DF8047B704700E100E080B483B0ED
:102D300000AF03463960FB7197F90730002B0ADBBF
:102D40000D4997F907303A68D2B29200D2B20B44DB
:102D500083F800230AE00949FB7903F00F03043BE1
:102D60003A68D2B29200D2B20B441A760C37BD4602
:102D70005DF8047B704700BF00E100E000ED00E07B
:102D800080B489B000AFF860B9607A60FB6803F086
:102D90000703FB61FB69C3F10703062B28BF06236A
:102DA000BB61FB690633062B02D9FB69013B00E0DE
:102DB00000237B61BB69012202FA03F35A1EBB6840
:102DC0001A407B699A407B69012101FA03F3591E7D
:102DD0007B680B40134318462437BD465DF8047BDF
:102DE000704700BF80B483B000AF78600B46FB70C3
:102DF0001346BB70F878FB787A6806339B0013445F
:102E00005B6823F00702BB781A437968831D9B0037
:102E10000B445A600C37BD465DF8047B704700BF19
:102E200080B483B000AF78607B681B6C23F00F0325
:102E300043F002027B681A640C37BD465DF8047BE0
:102E4000704700BF80B582B000AF0023FB712D48F2
:102E500000212D4AFDF7A6FA2C482D49FEF7E4FE85
:102E60002A4800210322FFF7BDFF28482021052220
:102E70000123FFF719F82548002105220023FFF759
:102E80003BF82248FFF7CCFF1E480121214AFDF7FD
:102E900089FA1E4810210222FFF77AF81B481021F8
:102EA0000122FFF791F8194810210022FFF7AAF834
:102EB000164813210022FFF7A5F8FFF70DFF034680
:102EC00018463F210022FFF75BFF03465B201946AF
:102ED000FFF72CFF5B20FFF70DFFFFF7FDFE03461A
:102EE00018463F210022FFF74BFF03465A201946A0
:102EF000FFF71CFF5A20FFF7FDFEFB791846083745
:102F0000BD4680BD008002487C9B0008000202484C
:102F1000289B0008349B000880B500AF0148FFF7EC
:102F20009DFD80BD50CCFF1F80B500AF0148FFF76D
:102F30001BFE80BD50CCFF1F80B400AF044BDB688C
:102F400003F4E0631B0A1846BD465DF8047B704736
:102F500000ED00E080B483B000AF03463960FB7140
:102F600097F90730002B0ADB0D4997F907303A68CB
:102F7000D2B29200D2B20B4483F800230AE009498E
:102F8000FB7903F00F03043B3A68D2B29200D2B24D
:102F90000B441A760C37BD465DF8047B704700BFC2
:102FA00000E100E000ED00E080B489B000AFF8601F
:102FB000B9607A60FB6803F00703FB61FB69C3F14A
:102FC0000703062B28BF0623BB61FB690633062BCC
:102FD00002D9FB69013B00E000237B61BB69012250
:102FE00002FA03F35A1EBB681A407B699A407B6958
:102FF000012101FA03F3591E7B680B401343184665
:103000002437BD465DF8047B704700BF80B582B0B1
:1030100000AF78607B68013BB3F1807F01D301236F
:103020000FE00A4A7B68013B53604FF0FF303F21BD
:10303000FFF790FF054B00229A60044B07221A60AD
:10304000002318460837BD4680BD00BF10E000E0F1
:1030500090B486B000AF78600023FB736B497A6848
:103060001346DB0013449B000B4418331B68BB6002
:10307000674B1B68002B09D17A681346DB001344A9
:103080009B00624A1344624A1360BBE0604B1B68BA
:103090007B61BB683B61ABE07B699B691A463B691E
:1030A0009B1A3B613B69002B7ADC7B695B68002BD8
:1030B00026D07B6959687A681346DB0013449B006D
:1030C000524A13440B607B69596850487A6813462A
:1030D000DB0013449B00034459604C497A68134653
:1030E000DB0013449B000B447A691A607A6813462C
:1030F000DB0013449B00454A1A447B695A601CE07C
:10310000434B196841487A681346DB0013449B001F
:10311000034419603E4B19687A681346DB00134478
:103120009B003A4A13444B607A681346DB00134411
:103130009B00364A1344364A136034497A68134672
:10314000DB0013449B000B441B689A693B69D11850
:103150002E487A681346DB0013449B00034418335F
:1031600019602A497A681346DB0013449B000B441C
:10317000196826487A681346DB0013449B00034411
:103180001B689869214C7A681346DB0013449B0046
:10319000234418331B68C31A8B610123FB7324E09B
:1031A0003B69002B21DD7B691B68002B1DD1174972
:1031B0007A681346DB0013449B000B447A695A601B
:1031C0007A681346DB0013449B00104A1A447B695B
:1031D0001A6039690D487A681346DB0013449B0076
:1031E0000344183319600123FB737B691B687B61FF
:1031F0007B69002B06D0FB7B83F00103DBB2002B45
:103200007FF44AAF1837BD4690BC70478CD7FF1F7C
:1032100058D7FF1F80B485B000AF78607A68134636
:10322000DB0013449B00294A1344FB60FB685B6886
:10323000002B07D1FB681B68002B03D1244B002215
:103240001A603DE0FB685B68002B14D1FB681B68CB
:103250001F4A13601E4B1B6800225A601C4B1B68E0
:103260001B4A12689169FA6892690A449A61FB687C
:1032700000221A6024E0FB681B68002B07D1FB6862
:103280005B6800221A60FB6800225A6018E0FB6845
:103290005B68FA6812681A60FB681B68FA68526813
:1032A0005A60FB681B68FA6812689169FA6892694B
:1032B0000A449A61FB6800221A60FB6800225A6087
:1032C0001437BD465DF8047B704700BF8CD7FF1FE5
:1032D00058D7FF1F80B582B000AF2F4B1B687B60B3
:1032E00050E07B6893F82030002B13D07B685B693B
:1032F0001846FFF78FFF7B6800225A737B685B6973
:103300001A4601239340DA43244B1B681340234A97
:10331000136034E07B681B7B002B12D17B685B7BE6
:10332000012B2CD17B685B691846FFF773FF7B6824
:1033300002225A737B689B687A6812691046984724
:103340001DE07B681B7B012B18D17B685B7B012B0D
:1033500015D17B685B691846FFF75CFF7B68DA690B
:103360007B689A617B685B691846FFF771FE7B6832
:103370009B687A6812691046984700E009E0064B9E
:103380001B687B607B68002B03D07B689B69002BEC
:10339000A7D00837BD4680BD58D7FF1F5CD7FF1F99
:1033A00080B582B000AF0E4B1B687B600D4B1B6875
:1033B00001330C4A13607B68002B0ED07B689B693D
:1033C000012B05D97B689B695A1E7B689A6104E0D2
:1033D0007B6800229A61FFF77DFF0837BD4680BDFC
:1033E00058D7FF1F60D7FF1F80B584B000AF78604B
:1033F0000023FB737B681B7883F00103DBB2002B97
:1034000020D0134B00221A601248FFF7FFFD03463D
:10341000FB73FB7B012B15D0FFF78EFD034618468F
:103420003F210022FFF7C0FD03464FF0FF30194651
:10343000FFF790FD084B00221A607B6801221A708A
:103440000023FB73FB7B18461037BD4680BD00BFD1
:1034500058D7FF1FC0D401005CD7FF1F80B489B0CC
:1034600000AFF8607A603B600B46FB720023FB61A3
:103470000023BB6100237B61FB68B3F57A7F02D236
:103480000023FB617BE00023BB6175E0BB69012287
:103490009A403E4B1B681340002B6AD1BB69012246
:1034A0009A403A4B1B681343384A13603849BA694B
:1034B0001346DB0013449B000B441033BA695A6077
:1034C0003349BA691346DB0013449B000B440833AD
:1034D000FA7A1A712E49BA691346DB0013449B002D
:1034E0000B44083302225A71FB682A4AA2FB0323C9
:1034F0009B097B617B69591C2548BA691346DB002F
:1035000013449B000344183319602149BA691346D8
:10351000DB0013449B000B4418337A695A601C4942
:10352000BA691346DB0013449B000B4408337A68E6
:103530001A601749BA691346DB0013449B000B4419
:1035400010333A681A601249BA691346DB00134413
:103550009B000B4400225A600D49BA691346DB00F8
:1035600013449B000B4400221A60BB690133FB61CA
:1035700005E0BB690133BB61BB69072B86D9FB69D9
:1035800018462437BD465DF8047B70475CD7FF1FA3
:103590008CD7FF1FD34D621080B584B000AF786028
:1035A0000123FB737B685A1E1A491346DB00134440
:1035B0009B000B4408335B79022B26D17B685A1E93
:1035C0007B68591E13480B46DB000B449B000344E9
:1035D00018335B68591C0F481346DB0013449B00EB
:1035E0000344183319607B685A1E0A491346DB00EE
:1035F00013449B000B44083301225A717B68013B42
:103600001846FFF725FD0023FB73FB7B1846103798
:10361000BD4680BD8CD7FF1F80B584B000AF7860F9
:103620000023FB737B685A1E16491346DB001344C4
:103630009B000B4408335B79002B02D10123FB7301
:103640001BE07B685A1E0F491346DB0013449B00A6
:103650000B4408335B79012B0FD17B685A1E094953
:103660001346DB0013449B000B44083302225A71BB
:103670007B68013B1846FFF7CDFDFB7B18461037F2
:10368000BD4680BD8CD7FF1F80B485B000AF786089
:103690000023FB737B685A1E20491346DB0013444A
:1036A0009B000B4408335B79002B02D10123FB7391
:1036B0002DE07B685A1E19491346DB0013449B001A
:1036C0000B4408335B79022B16D17B685A1E1349D1
:1036D0001346DB0013449B000B44083300225A714D
:1036E0007B68013B1A4601239340DA430C4B1B686D
:1036F00013400B4A13600AE07B685A1E07491346C1
:10370000DB0013449B000B44203301221A70FB7B27
:1037100018461437BD465DF8047B70478CD7FF1FF1
:103720005CD7FF1F80B400AF054B1B684FF47A7263
:1037300002FB03F31846BD465DF8047B704700BFEB
:1037400060D7FF1F80B483B000AF78600B46FB707A
:103750007B68DA68FB78012101FA03F31A437B687E
:10376000DA600C37BD465DF8047B704780B483B0E7
:1037700000AF786039607B685A693B685B041A4324
:103780007B685A610C37BD465DF8047B704700BF0B
:1037900080B483B000AF786039607B685A693B6859
:1037A0005B04DB431A407B685A610C37BD465DF809
:1037B000047B704780B483B000AF78607B680122DF
:1037C0001A610C37BD465DF8047B704780B483B046
:1037D00000AF786039607B683A681A610C37BD4683
:1037E0005DF8047B704700BF80B483B000AF7860A1
:1037F0000B467B807A887B681A670C37BD465DF87C
:10380000047B704780B483B000AF78600B46FB70D8
:103810007B68D3F8A420FB78012101FA03F31A4353
:103820007B68C3F8A4200C37BD465DF8047B704765
:1038300080B483B000AF78600B46FB707B68D3F830
:10384000B020FB78012101FA03F31A437B68C3F827
:10385000B0200C37BD465DF8047B704780B483B060
:1038600000AF78600549054BDA6C7B681343CB6485
:103870000C37BD465DF8047B704700BF0040005028
:1038800080B483B000AF78600549054BDA6C7B6883
:10389000DB431340CB640C37BD465DF8047B7047B7
:1038A0000040005080B483B000AF78600B46FB70DE
:1038B000FB7801229A407B685A600C37BD465DF860
:1038C000047B704780B483B000AF78600B46FB7018
:1038D000FB784FF480329A407B685A600C37BD46C3
:1038E0005DF8047B704700BF80B582B000AF7860A0
:1038F0007B681B6893F84430012B06D17B689B687A
:103900001B6818460021FFF77DFF7B681B6893F852
:103910004530012B06D17B689B681B6818460A213D
:10392000FFF770FF0837BD4680BD00BF80B582B08D
:1039300000AF78607B681B68DB7C012B09D17B685A
:103940009B6D1A687B689B6D1B7910461946FFF7C3
:10395000B9FF7B681B68DB7C022B09D17B689B6D00
:103960001A687B689B6D1B7910461946FFF79AFF12
:103970000837BD4680BD00BF80B582B000AF78601B
:103980007B681B68DB7C012B09D17B689B6D1A6807
:103990007B689B6D1B7910461946FFF783FF7B6898
:1039A0001B68DB7C022B09D17B689B6D1A687B68E6
:1039B0009B6D1B7910461946FFF784FF0837BD46FB
:1039C00080BD00BF80B586B000AF786000237B610A
:1039D00000233B610023FB737B681B68BB607B6833
:1039E00093F89030002B40F033817B689B6E184633
:1039F00001F0C0FC0346FB7300233B6116E07B68CB
:103A00003A69083253F8223018687B683A690832FC
:103A100053F8223019797B683A690E3253F8223014
:103A20001A46FCF7BFFC3B6901333B613B69052B40
:103A3000E5D9BB6893F84730012B1AD17B681B6D21
:103A400019687B681B6D1A797B685B6D08461146A7
:103A50001A46FCF7A7FC7B681B6D19687B681B6D19
:103A60001A797B681B689B7C084611461A46FDF74D
:103A700027FFBB68DB7C002B0CD07B689B6D196833
:103A80007B689B6D1A797B68DB6D084611461A4688
:103A9000FCF788FC7868FFF749FF00237B61A4E00E
:103AA0007B687A69023253F822301A687B689B6916
:103AB00010461946FDF712FD7B687A69023253F809
:103AC00022301A687B68DB6E10461946FDF78AFEC5
:103AD0007B687A69023253F822301A687B685B6E21
:103AE000104601211A46FDF7EDFDBB6893F84730FB
:103AF000012B21D17B687A69023253F822301A688F
:103B00007B681B6E104603211A46FDF7DBFD7B68C0
:103B10007A69023253F822301968BB685A7CBB6854
:103B200093F84830002B14BF01230023DBB2084672
:103B300011461A46FDF78CFD7B687A69023253F80C
:103B400022301A687B68D3F89C309BB21046194625
:103B5000FDF722FE7B687A69023253F822301B6837
:103B6000184600210022FDF725FE7B687A690232A3
:103B700053F822301B68184601210022FDF71AFE77
:103B80007B687A69023253F8223019687B681A68B8
:103B90007B69134408331B7908461946FDF738FE44
:103BA0007B687A69023253F822301B687A68796937
:103BB000023152F821201268D2F8A810BA68786948
:103BC0000A3052F820200A43C3F8A8207B685968BD
:103BD0007B687A69023253F822301B79084619460D
:103BE000FFF7B0FD7B6901337B617B69022B7FF6B8
:103BF00057AF7868FFF778FE7B685A68BB685B6AE6
:103C000010461946FFF7E2FD7B68DB6E1B791A460A
:103C10007B68C3F894207B68DB6E5B791A467B680F
:103C2000C3F898207B68DB6E1B78C3F38113DBB28B
:103C30001A467B6883F89120FB7B012B06D000237A
:103C4000FB737B68012283F8902001E00123FB7362
:103C5000FB7B18461837BD4680BD00BF80B584B0D9
:103C600000AF78600023FB607B681B68BB607B68EB
:103C700093F89030012B05D07B6893F89030032B9C
:103C800040F033817B680022A3F8AE207B680022DD
:103C9000A3F8B0207B680022A3F8B2207B68002242
:103CA000A3F8B4207B680022A3F8B6207B6800222A
:103CB000A3F8B8207B680022A3F8BA207B68002212
:103CC000A3F8BC207B680022C3F8A4207B680022F4
:103CD000A3F8C0207868FFF74FFE0023FB6026E0C2
:103CE000BB6893F84730012B13D17B68FA68023226
:103CF00053F822301B6818460A21FFF799FD7B68AC
:103D0000FA68023253F822301B6818460B21FFF77D
:103D10008FFD7B68FA68023253F822301B68184620
:103D200001210122FDF74CFCFB680133FB60FB68BD
:103D3000022BD5D9BB6893F84730012B29D17B687A
:103D40009B681A68BB681B7D1946BB681B7D5B00BE
:103D50000B4310461946FFF709FD7B68DB681A68BC
:103D6000BB685B7D1946BB685B7D5B000B431046FF
:103D70001946FFF7FBFC7B681B691A68BB689B7DD3
:103D80001946BB689B7D5B000B4310461946FFF745
:103D9000EDFCBB681B7C002B75D07B685B691B68E6
:103DA000184601210122FDF70BFCBB681B7C012B8F
:103DB00033D17B689B6819687B68B3F8C2305B08B5
:103DC0009AB2BB68B3F8403013449BB20846194618
:103DD000FFF70AFD7B68DB6819687B68B3F8C230BF
:103DE0005B089AB2BB68B3F8403013449BB20846F4
:103DF0001946FFF7F9FC7B681B6919687B68B3F803
:103E0000C2305B089AB2BB68B3F8403013449BB22F
:103E100008461946FFF7E8FC35E07B689B6819689F
:103E20007B68D3F894309BB2DBB29AB2BB68B3F82C
:103E3000403013449BB208461946FFF7D5FC7B6817
:103E4000DB6819687B68D3F894309BB2DBB29AB216
:103E5000BB68B3F8403013449BB208461946FFF7DD
:103E6000C3FC7B681B6919687B68D3F894309BB2EC
:103E7000DBB29AB2BB68B3F8403013449BB2084639
:103E80001946FFF7B1FCBB681B6A1846FFF7E6FC52
:103E90007B689B681B68184600210122FDF790FB98
:103EA0007B68DB681B68184600210122FDF788FB50
:103EB0007B681B691B68184600210122FDF780FB07
:103EC000BB681B7C002B07D07B685B691B681846AE
:103ED00000210122FDF774FBBB681B6A1846FFF73F
:103EE000CFFC7B68022283F890201037BD4680BD4E
:103EF00080B584B000AF78607B681B68BB60786871
:103F0000FFF714FDBB6893F84730012B3ED17B6867
:103F10009B681A68BB681B7D1946BB681B7D5B00EC
:103F20000B4310461946FFF733FC7B68DB681A68C1
:103F3000BB685B7D1946BB685B7D5B000B4310462D
:103F40001946FFF725FC7B681B691A68BB689B7DD7
:103F50001946BB689B7D5B000B4310461946FFF773
:103F600017FC7B689B681B6818460B21FFF760FCF9
:103F70007B68DB681B6818460B21FFF759FC7B68E0
:103F80001B691B6818460B21FFF752FC0023FB60DE
:103F90000BE07B68FA68023253F822301B6818463F
:103FA000FFF708FCFB680133FB60FB68022BF0D9CC
:103FB000BB681B7C002B05D07B685B691B681846BF
:103FC000FFF7F8FBBB681B6A1846FFF759FC7B68D4
:103FD000032283F890201037BD4680BD80B588B09D
:103FE00000AF786039600123FB747B681B68FB605D
:103FF0007B6893F89030012B04D07B6893F8903065
:10400000032B7ED17B681B68DA6B3B689A4276D2C1
:104010007B681B689A6B3B689A4270D3FB68DA69CD
:104020003B68B2FBF3F3BB607B689B691B7803F0D2
:104030000103DBB2002B03D1BB68013BFB6103E052
:10404000BB685B08013BFB617B6893F89230042BF3
:104050000AD17B68B3F8C4301A4613465B00134498
:10406000C3F580437B6113E07B6893F89230052BA6
:104070000BD17B68B3F8C4301A4613469B079B1AD2
:104080009B0003F580437B6102E04FF480437B613A
:104090000023BB610EE07B68BA69023253F822301C
:1040A0001A68FB699BB210461946FDF775FBBB69A0
:1040B0000133BB61BB69022BEDD97B681B681B7C9C
:1040C000002B08D07B685B691A68FB699BB21046BD
:1040D0001946FDF761FB7B685A68FB685B6A10460E
:1040E0001946FFF773FB7B68FA69C3F89C207B696C
:1040F0009AB27B68A3F8C6200023FB7401E0022378
:10410000FB74FB7C18462037BD4680BD80B483B06D
:1041100000AF78600B46FB707B68DA68FB780121A2
:1041200001FA03F31A437B68DA600C37BD465DF889
:10413000047B704780B483B000AF78607B685B69B4
:1041400043F400327B685A610C37BD465DF8047B4E
:10415000704700BF80B483B000AF78607B680122F5
:10416000DA600C37BD465DF8047B704780B483B0DD
:1041700000AF78600B467B807A887B685A630C3787
:10418000BD465DF8047B704780B483B000AF7860B3
:104190000B467B807A887B68DA630C37BD465DF816
:1041A000047B704780B483B000AF786039607B686F
:1041B0003A681A610C37BD465DF8047B704700BF52
:1041C00080B483B000AF78600B46FB707B68D3F897
:1041D000A420FB78012101FA03F31A437B68C3F89A
:1041E000A4200C37BD465DF8047B704780B586B0CF
:1041F00000AF78600123FB750123BB757B681B7FD3
:10420000002B40F08C807B681B68DB6C184601F04B
:10421000E1F80346BB75BB7D002B7CD17B689A68B7
:104220007B681B689B6B10461946FCF727FE7B6872
:104230009A687B681B685B8810461946FFF796FFF3
:104240007B689A687B681B689B8810461946FFF755
:104250009BFF7B681B689B6BDB7803F00203DBB280
:10426000002B08D07B685A687B681B685B6B104624
:104270001946FCF7E7FD7B685A687B681B691046A6
:104280001946FFF78FFF7B685A687B685B691046A9
:104290001946FFF787FF786800F0E2F8786800F0C9
:1042A00045F87B681B6893F83C30002B0ED07B6888
:1042B0001B68196C7B681B6893F844207B681B683B
:1042C0009B6C084611461A46FCF76CF87B681B6825
:1042D000DB6C1B683B617B681B689B6B1B79C3F3C2
:1042E0000303DBB2FB60FB683A6922FA03F33B612C
:1042F0007B683A691A627B6801221A770023FB7592
:104300007B681B681B78002B0BD0786800F08CF959
:104310000346FB7505E07B6800221A7701E0022363
:10432000FB75FB7D18461837BD4680BD80B582B051
:1043300000AF78607B681B689B79002B0FD07B688F
:104340009A687B681B685B7B104600211A46FCF765
:10435000EBFF7B689B6818460021FFF731FF7B6805
:104360001B68DB79002B0FD07B689A687B681B6821
:104370009B7B104602211A46FCF7D6FF7B689B68A0
:1043800018460221FFF71CFF7B681B681B7A002B75
:104390000FD07B689A687B681B68DB7B1046032123
:1043A0001A46FCF7C1FF7B689B6818460321FFF79C
:1043B00007FF7B681B685B7A002B0FD07B689A68CD
:1043C0007B681B681B7C104601211A46FCF7ACFF7A
:1043D0007B689B6818460121FFF7F2FE7B681B682B
:1043E0009B7A002B0FD07B689A687B681B685B7C8C
:1043F000104608211A46FCF797FF7B689B68184611
:104400000821FFF7DDFE7B681B68DB7A002B0FD0ED
:104410007B689A687B681B689B7C104609211A465A
:10442000FCF782FF7B689B6818460921FFF7C8FEEE
:104430007B681B681B7B002B0FD07B689A687B68AE
:104440001B68DB7C10460A211A46FCF76DFF7B686F
:104450009B6818460A21FFF7B3FE0837BD4680BDAA
:1044600080B582B000AF78607B689A687B681B6813
:104470005B69104601211A46FCF7ECFE7B689A68DE
:104480007B681B689B69104602211A46FCF7E2FE16
:104490007B689A687B681B68DB69104603211A46B3
:1044A000FCF7D8FE7B681B6893F82030002B0ED0F9
:1044B0007B6899687B681B6893F820207B681B6881
:1044C00093F82130084611461A46FCF70DFD7B682B
:1044D0001B6893F82230002B0ED07B6899687B68AC
:1044E0001B6893F822207B681B6893F823300846EA
:1044F00011461A46FCF726FD7B681B6893F82430AA
:10450000002B09D07B689A687B681B6893F824307D
:1045100010461946FCF7D0FD7B681B6893F82530E0
:10452000002B09D07B689A687B681B6893F825305C
:1045300010461946FCF7A6FD7B681B6893F82630E9
:10454000002B09D07B689A687B681B6893F826303B
:1045500010461946FCF77CFD7B681B6893F82730F2
:10456000002B09D07B689A687B681B6893F827301A
:1045700010461946FCF712FD7B681B6893F828303B
:10458000002B0FD07B6898687B681B6893F8281015
:104590007B681B6893F829207B681B6893F82A3096
:1045A000FCF716FD7B681B6893F82E30032B19D19E
:1045B0007B6899687B681B6893F830207B681B6870
:1045C00093F82F30084611461A46FCF7A7FD7B6882
:1045D0001B6893F82D30002B04D07B689B6818462D
:1045E000FFF7A8FD7B681B6893F82B30022B17D1CF
:1045F0007B681B6893F82C30032B11D17B6899687A
:104600007B681B689A697B681B68DB6908461146F2
:104610001A46FCF7BDFD7B689B681846FCF766FDF3
:104620000837BD4680BD00BF80B584B000AF78605C
:104630000123FB737B681B7F012B03D07B681B7FEF
:10464000032B17D17B685A687B685B7B1046194641
:10465000FFF75CFD7B681B6893F82030002B04D1CA
:104660007B689B681846FFF775FD7B6802221A7706
:104670000023FB73FB7B18461037BD4680BD00BF8F
:1046800080B483B000AF0346FB7197F90730002B6D
:104690000CDB094997F907305B09FA7902F01F0230
:1046A000012000FA02F2603341F823200C37BD46A6
:1046B0005DF8047B704700BF00E100E080B483B088
:1046C00000AF786039607B681A6C3B68DB431A4046
:1046D0007B681A640C37BD465DF8047B704700BFE9
:1046E00080B483B000AF78607B689B6BDBB223F053
:1046F0007F03DBB218460C37BD465DF8047B70477C
:1047000080B483B000AF786039607B68D3F808214B
:104710003B681A437B68C3F808210C37BD465DF837
:10472000047B704780B483B000AF786039607B68E9
:10473000D3F808213B68DB431A407B68C3F80821A3
:104740000C37BD465DF8047B704700BF80B483B072
:1047500000AF78607B68D3F8143103F48053002BEA
:1047600014BF01230023DBB218460C37BD465DF8A9
:10477000047B704780B483B000AF78607B68D3F867
:10478000143103F40063002B14BF01230023DBB2B8
:1047900018460C37BD465DF8047B704780B483B083
:1047A00000AF786039607B68D3F80C213B68DB434D
:1047B0001A407B68C3F80C210C37BD465DF8047BBA
:1047C000704700BF80B483B000AF78607B68D3F8D7
:1047D000143103F00803002B14BF01230023DBB2C4
:1047E00018460C37BD465DF8047B704780B483B033
:1047F00000AF78607B689B6C18460C37BD465DF84F
:10480000047B704780B483B000AF786039607B6808
:10481000DA6C3B681A437B68DA640C37BD465DF896
:10482000047B704780B584B000AFF860B9607A60EF
:10483000FB681A68BB68DBB2104619467A68FDF758
:1048400085FB1037BD4680BD80B582B000AF786073
:104850007B681B681846FFF779FF03461846083740
:10486000BD4680BD80B582B000AF78607B681B68B4
:104870001846FFF7A7FF034618460837BD4680BD18
:1048800080B582B000AF78607B681B681846FDF782
:1048900075F9034618460837BD4680BD80B582B01D
:1048A00000AF78600B46FB707B681A68FB78104697
:1048B0001946FDF7F1F80837BD4680BD80B582B0D6
:1048C00000AF786039607B681B6818463968FDF76F
:1048D0006FF90837BD4680BD80B582B000AF786003
:1048E0007B681B681846FDF7FDF80837BD4680BD9C
:1048F00080B582B000AF78607B681B681846FDF712
:1049000017F90837BD4680BD80B582B000AF78602A
:104910007B681B6818461021FFF774FF7B681B68D3
:104920001846FDF793F80837BD4680BD80B485B0C2
:1049300000AF786039607A683B689A4202D27B683F
:10494000FB6001E03B68FB60FB6818461437BD461E
:104950005DF8047B704700BF80B584B000AF78601D
:104960007B68002B06D07B685B685B6898470023F8
:10497000FB7301E00123FB73FB7B18461037BD4638
:1049800080BD00BF80B584B000AF786039607B68BF
:104990001B681846FFF72AFFF860FA683B68134067
:1049A00018461037BD4680BD80B582B000AF786034
:1049B00039607B681B6818463968FFF723FF0837A2
:1049C000BD4680BD80B584B000AF78607B689B68D1
:1049D000BB600023FB7378684FF4B171FFF7D2FF1F
:1049E0000346002B11D07B681B6818464FF08041AE
:1049F000FFF798FE7B681B6818464FF40051FFF7DD
:104A00005DFE786800F096FA05E1BB689B69002BB3
:104A100040F082807B685B6893F82630002B5AD088
:104A2000BB68DA68BB689B689A422ED278684FF000
:104A30008041FFF743FF7B681B6818464FF08041B9
:104A4000FFF75EFE17E0BB68DA68BB689B689A42B6
:104A50000FD2BB681A68BB68DB6813441B787868A0
:104A60001946FFF71BFFBB68DB685A1CBB68DA609E
:104A700001E000BFCFE07868FFF7E6FE034683F071
:104A80000103DBB2002BDED1C5E07B681B68184652
:104A90004FF08041FFF746FE7B685B6893F8283053
:104AA0005BB21846FFF7ECFD00BF7B681B68184639
:104AB000FFF760FE034683F00103DBB2002BF4D165
:104AC000BB6893F82830DBB2002B00F0A480786834
:104AD00000F0A4F89FE0BB68DA68BB689B689A4264
:104AE0000FD2BB681A68BB68DB6813441B78786810
:104AF0001946FFF7D3FEBB68DB685A1CBB68DA6057
:104B000089E0BB6893F82830DBB2002B00F083808B
:104B1000786800F083F87EE07B685B6893F8263065
:104B2000002B54D07B685B6893F82730002B15D09E
:104B30007B685B6893F826301A46012303FA02F279
:104B40007B685B6893F82730194601238B40104639
:104B50001946FFF7EBFE0346FB7301E00223FB73EC
:104B60007B681B6818464FF08041FFF7DBFD23E0B0
:104B7000BB68DA68BB689B689A421CD2BB68DB687A
:104B80005A1CBB689B689A4207D1BB681B6A012B01
:104B900003D17868FFF7ACFE02E07868FFF79CFE6F
:104BA000BB68DB685A1CBB68DA60BB68DA68FB7BF1
:104BB0009A4201D30AE009E07868FFF745FE034610
:104BC00083F00103DBB2002BD2D117E016E0BB6803
:104BD000DB685A1CBB689B689A4207D1BB681B6A9A
:104BE000012B03D17868FFF783FE02E07868FFF7B6
:104BF00073FEBB68DB685A1CBB68DA607B689B6825
:104C0000DA687B689B689B689A4204D178684FF0A9
:104C10008041FFF753FE1037BD4680BD80B584B09C
:104C200000AF78607B689B68FB6078684FF08041DC
:104C3000FFF744FEFB68DB69012B06D1FB6800220D
:104C400083F828207868FFF75FFE00BF7B681B6849
:104C50001846FFF745FD0346802BF7D0FB6800227E
:104C600083F826207B685B681B69002B03D07B6878
:104C70005B681B6998471037BD4680BD90B585B00D
:104C800000AF78607B689B68BB600023FB73BB68E8
:104C900093F82730DBB2002B00F011817B685B6852
:104CA00093F82730002B00F0C78020E0BB685A68DB
:104CB000BB685B69D4187868FFF7E2FD0346237090
:104CC000BB685B695A1CBB685A61BB685A69BB68A0
:104CD0001B699A420BD1BB68002283F827207B68AE
:104CE0001B6818464FF0C041FFF758FD08E0786890
:104CF000FFF7B8FD034683F00103DBB2002BD5D1EB
:104D0000BB685A69BB681B699A4277D2BB681A694B
:104D1000BB685B69D31A7868194600F04FF97B6865
:104D20005B6893F82630002B15D07B685B6893F89E
:104D300026301A46012303FA02F27B685B6893F877
:104D40002730194601238B4010461946FFF7EEFD28
:104D50000346BB7301E00223BB737B685B6893F877
:104D60002630002B33D027E0BB68DA68BB689B682D
:104D70009A4220D2BB68DB685A1CBB689B689A4287
:104D800007D1BB681B6A012B03D17868FFF7B0FD20
:104D900002E07868FFF7A0FDBB68DB685A1CBB68BF
:104DA000DA60FB7B0133FB73FA7BBB7B9A4203D354
:104DB0000023FB730AE009E07868FFF745FD03462E
:104DC00083F00103DBB2002BCED117E016E0BB6805
:104DD000DB685A1CBB689B689A4207D1BB681B6A98
:104DE000012B03D17868FFF783FD02E07868FFF7B5
:104DF00073FDBB68DB685A1CBB68DA60BB685A6924
:104E0000BB681B699A425AD17B681B6818464FF0F1
:104E1000C041FFF7C3FC7B681B6818464FF4404154
:104E2000FFF74CFCBB6893F82830DBB2002B46D070
:104E3000786800F047F842E0BB685A68BB685B6975
:104E4000D4187868FFF71CFD03462370BB685B69C4
:104E50005A1CBB685A61BB685A69BB681B699A4295
:104E60001DD2BB68DA68BB689B689A4227D2BB68D0
:104E7000DA68BB689B68013B9A4207D1BB681B6A32
:104E8000012B03D17868FFF733FD02E07868FFF764
:104E900023FDBB68DB685A1CBB68DA600FE07B68E7
:104EA0001B6818464FF44041FFF708FCBB6893F8B5
:104EB0002830DBB2002B02D0786800F003F81437FA
:104EC000BD4690BD80B584B000AF78607B689B68BC
:104ED000FB60FB68DB69012B0FD100BF7B681B689F
:104EE0001846FFF7FDFB0346802BF7D0FB68002236
:104EF00083F828207868FFF707FD00BF7B681B68F0
:104F00001846FFF7EDFB0346802BF7D0FB68002225
:104F100083F82720FB68002283F826207B685B68E3
:104F20005B69002B03D07B685B685B69984710372F
:104F3000BD4680BD80B584B000AF78607B681B68DB
:104F40001846FFF753FCF8607B685B689B69002B91
:104F50000CD0FB6803F02003002B07D078682021D9
:104F6000FFF722FD7B685B689B6998477B685B68FD
:104F7000DB69002B0CD0FB6803F04003002B07D04B
:104F800078684021FFF710FD7B685B68DB69984714
:104F90007B685B681B6A002B0DD0FB6803F4817390
:104FA000002B08D078684FF48071FFF7FDFC7B6818
:104FB0005B681B6A98471037BD4680BD80B586B0D8
:104FC00000AF786039607B685B6893F827301A46D9
:104FD00001239340BB757B685B6893F82630002BF8
:104FE00008D07B685B6893F826301A46012393400B
:104FF000FB7501E00123FB75FA7DBB7D1046194668
:10500000FFF794FC386138683969FFF78FFC034675
:10501000FB737B685B6893F827301A46FB7B013B88
:10502000786811461A46FFF7FDFB1837BD4680BD6C
:1050300080B400AF044BDB6803F4E0631B0A18463E
:10504000BD465DF8047B704700ED00E080B483B09E
:1050500000AF0346FB7197F90730002B0BDB0849C3
:1050600097F907305B09FA7902F01F02012000FA74
:1050700002F241F823200C37BD465DF8047B7047EF
:1050800000E100E080B483B000AF03463960FB71FB
:1050900097F90730002B0ADB0D4997F907303A687A
:1050A000D2B29200D2B20B4483F800230AE009493D
:1050B000FB7903F00F03043B3A68D2B29200D2B2FC
:1050C0000B441A760C37BD465DF8047B704700BF71
:1050D00000E100E000ED00E080B489B000AFF860CE
:1050E000B9607A60FB6803F00703FB61FB69C3F1F9
:1050F0000703062B28BF0623BB61FB690633062B7B
:1051000002D9FB69013B00E000237B61BB690122FE
:1051100002FA03F35A1EBB681A407B699A407B6906
:10512000012101FA03F3591E7B680B401343184613
:105130002437BD465DF8047B704700BF80B483B060
:1051400000AF78600B46FB701346BB70F878FB78B5
:105150007A6806339B0013445B6823F00702BB7830
:105160001A437968831D9B000B445A600C37BD4677
:105170005DF8047B704700BF80B483B000AF7860F7
:1051800039607B68D3F808213B681A437B68C3F811
:1051900008210C37BD465DF8047B704780B483B0AE
:1051A00000AF786039607B68D3F80C213B681A4304
:1051B0007B68C3F80C210C37BD465DF8047B704753
:1051C00080B483B000AF78600B46FB707B681B6CCB
:1051D00023F00F02FB781A437B681A640C37BD4634
:1051E0005DF8047B704700BF80B582B000AF786087
:1051F00078680421FFF7E4FF0837BD4680BD00BF93
:1052000080B500AF054805210022FCF719FB0348D3
:1052100004210022FCF714FB80BD00BF008202487D
:1052200080B500AFD023064805211A46FCF708FBDD
:10523000D023034804211A46FCF702FB80BD00BFBF
:105240000082024880B582B000AF00237B604FF03F
:10525000C0433B6032483349FCF774FB30480021BF
:105260000122FFF76BFF2E4801210022FFF766FFA6
:105270002B48102104220123FCF716FE2848102198
:105280000322FCF7A1FE26487968FFF775FF244842
:10529000002104220F23FCF72FFE214810210522B4
:1052A000FCF7B0FE1E4813210522FCF7ABFE1C489C
:1052B0003968FFF773FF1A4810210022FCF768FED7
:1052C0001748FFF791FF18480521184AFBF76AF8BD
:1052D00015480421164AFBF765F8FFF7A9FE0346B7
:1052E00018463F210022FFF7F7FE034657201946D4
:1052F000FFF7C8FE5720FFF7A9FEFFF799FE034608
:1053000018463F210022FFF7E7FE034659201946C1
:10531000FFF7B8FE5920FFF799FE0837BD4680BD5C
:10532000000203404CA600080082024834A6000890
:1053300040A6000880B500AF0148FFF743FB80BDE1
:1053400060CEFF1F80B500AF0148FFF797FC80BD1E
:1053500060CEFF1F80B483B000AF78607B68DB68ED
:1053600043F480727B68DA600C37BD465DF8047BDD
:10537000704700BF80B582B000AF78607B685B7B10
:1053800083F00103DBB2002B0FD07B689A687B6847
:105390001B7B10461946FCF783F87B689B68184610
:1053A000FFF7D8FF7B6801225A730023184608379D
:1053B000BD4680BD80B483B000AF78607B68DB6899
:1053C00043F480727B68DA600C37BD465DF8047B7D
:1053D000704700BF80B582B000AF78607B685B7BB0
:1053E00083F00103DBB2002B0FD07B689A687B68E7
:1053F0001B7B10461946FBF707FD7B689B68184628
:10540000FFF7D8FF7B6801225A730023184608373C
:10541000BD4680BD80B483B000AF786039607B68E2
:10542000D3F880203B681033194601238B401A4380
:105430007B68C3F880200C37BD465DF8047B70475D
:1054400080B584B000AF78607B681B7E022B49D1A9
:105450007B685A697B681B6910461946FCF780FE19
:105460000023FB602FE07B68FA6853F8223019684C
:105470007B68FA6853F822305B6808461946FCF7E7
:1054800011FF7B68FA6853F822301B681846032125
:10549000FCF798FF7B68FA6853F822301B7A83F098
:1054A0000103DBB2002B05D07B685B691846F96805
:1054B000FFF7B0FF7B68FA6853F8223000225A7277
:1054C000FB680133FB60FB68032BCCD97B685B7EF8
:1054D000002B04D07B685B691846FCF78FFE7B6865
:1054E00000221A767B681B7E18461037BD4680BDA9
:1054F00080B582B000AF78607B6819687B681A7CE1
:105500007B680433084611461A46FAF74BFF7B685E
:1055100019687B681A7C7B685B7C084611461A46D2
:10552000FCF7CEF9002318460837BD4680BD00BF02
:1055300080B485B000AF78607B6803F00703FB6040
:105540000C4BDB68BB60BA684FF6FF031340BB60CF
:10555000FB681A02BB68134343F0BF6343F4003394
:10556000BB60044ABB68D3601437BD465DF8047B5A
:10557000704700BF00ED00E080B582B000AF0120B1
:10558000FFF7D6FF72B6214B214A9A60BFF34F8FC7
:1055900062B61E4A1D4BD3F8883043F47003C2F83C
:1055A00088301C4B03F5805314331B687B607B6889
:1055B00023F00F037B607B6843F003037B60154B94
:1055C00003F5805314337A681A60104A0F4B5B69F5
:1055D00023F0100353610D4A0C4B5B6923F0080361
:1055E00053610A4A094B5B6A23F480335362074ACA
:1055F000064B5B6A23F400335362044A034B5B6A35
:1056000023F4802353620837BD4680BD00ED00E0DF
:10561000000000080010005880B485B000AF78602A
:105620000023FB737B6801221A70FB7B184614373A
:10563000BD465DF8047B704780B400AF024B18464E
:10564000BD465DF8047B7047001BB700B0B586B05F
:1056500000AF104B3C1D1D460FCD0FC42B682360BF
:105660003B1D1846FAF77EFF0020FBF779F8002073
:10567000FBF72EF80420FBF7FFF801202021FBF7B1
:105680004FF90020FBF738F80120FBF709F918372C
:10569000BD46B0BD40A9000880B582B000AF7860BB
:1056A0007B681B689847034618460837BD4680BD8F
:1056B00080B483B000AF78600B46FB707B68DA681B
:1056C000FB78012101FA03F31A437B68DA600C3797
:1056D000BD465DF8047B704780B483B000AF78604E
:1056E0000B467B807A887B68DA630C37BD465DF8B1
:1056F000047B704780B483B000AF78600B467B803A
:105700007A887B685A640C37BD465DF8047B704725
:1057100080B483B000AF786039607B683A681A6102
:105720000C37BD465DF8047B704700BF80B483B082
:1057300000AF78600B467B807A887B681A670C37ED
:10574000BD465DF8047B704780B483B000AF7860DD
:105750007B68D3F8B43023F001027B68C3F8B4202F
:105760000C37BD465DF8047B704700BF80B500AFC5
:105770002048FFF7FFFD20482049FBF7AFFE1E48F9
:105780004FF40041FFF7A8FF1B484FF40041FFF71B
:10579000B1FF19484FF6FF71FBF7FEFF18484FF0B5
:1057A0000051FBF7F1FE1448FFF7CEFF14484FF409
:1057B000E041FFF7ADFF10480121124AFBF782FFDD
:1057C0000D480221104AFBF77DFF0B4803210F4AC9
:1057D000FBF778FF08480321FBF720FF0848032167
:1057E000FFF766FF04480021FFF7A0FF00231846DB
:1057F00080BD00BF6CCEFF1F0004024064A90008FA
:105800000000024074A9000878A900087CA90008DB
:1058100080B582B000AF78607B681B68984703460C
:1058200018460837BD4680BD80B483B000AF7860AD
:105830000B46FB707B68DA68FB78012101FA03F301
:105840001A437B68DA600C37BD465DF8047B70470D
:1058500080B483B000AF78600B467B807A887B6829
:105860005A630C37BD465DF8047B704780B483B043
:1058700000AF78600B467B807A887B68DA630C37F0
:10588000BD465DF8047B704780B483B000AF78609C
:1058900039607B683A681A610C37BD465DF8047B55
:1058A000704700BF80B483B000AF78600B467B8048
:1058B0007A887B681A670C37BD465DF8047B7047B1
:1058C00080B500AF1A48FFF785FD1A481A49FBF763
:1058D000D5FA18484FF40041FFF7C8FF15484FF6B6
:1058E000FF71FFF7B5FF15484FF00051FBF7AAFA1B
:1058F00012484FF4E041FFF7C7FF0E480121104A5C
:10590000FBF7A8FC0B4802210E4AFBF7A3FC094851
:1059100003210D4AFBF79EFC08480321FFF784FF93
:1059200004480021FFF7BEFF0023184680BD00BFDA
:105930008CCEFF1F0044004890A90008004000489A
:1059400098A900089CA90008A0A9000880B485B007
:1059500000AF78600B46FB701346BB70BB78002B22
:1059600008D1FB78012202FA03F3DA437B68134083
:10597000FB6005E0FB7801229A407B681343FB60E3
:10598000FB6818461437BD465DF8047B704700BFBE
:1059900080B584B000AF78600023FB607B681B7B20
:1059A000002B2DD17B681B681846FDF71DFD0346B3
:1059B000FB604FF4FA600121144A0023FDF74EFD0D
:1059C00002467B689A607B689B681846FDF7E4FD99
:1059D00003461A46FB681343FB600D4800F060FB6A
:1059E00003461A46FB681343FB600A4800F058FB65
:1059F00003461A46FB681343FB607B6801221A7357
:105A0000FB68DBB218461037BD4680BD6D5D0008EF
:105A100058CFFF1FC8CFFF1F80B487B000AFF8601A
:105A2000B9607A60134B5B7B002B1AD1114B5B7B07
:105A30001946114AFB6842F831300E4B5B7B0E4A27
:105A4000DB001344BA685A600A4B5A7B7B681A70B1
:105A5000084B5B7B0133DAB2064B5A730023FB75AC
:105A600001E00423FB75FB7D18461C37BD465DF83D
:105A7000047B7047DCCFFF1F3CDAFF1F90B587B077
:105A800000AFF860B9607A602C4B1B7C052B4ED8B8
:105A90002A4B1B7C19462A4A0B465B000B449B0091
:105AA0001344FA681A60254B1B7C1946244A0B469E
:105AB0005B000B449B0013447A685A601F4B1B7CAD
:105AC0001C4678680121FA68BB68FDF7C7FC0146EF
:105AD0001B4A23465B0023449B0013440833196090
